:100000000C9461000C947E000C947E000C947E0095
:100010000C948D010C947E000C947E000C947E0058
:100020000C947E000C947E000C947E000C947E0058
:100030000C947E000C947E000C947E000C947E0048
:100040000C947E000C947E000C947E000C947E0038
:100050000C947E000C947E000C947E000C947E0028
:100060000C947E000C947E000902120001010080B5
:100070003209040000000000000012011001FF001E
:100080000008C016DC050001010200011003440055
:100090006F00740050006800610074002203470084
:1000A00061006C006F007300200049006E00640066
:1000B000750073007400720069006500730004032A
:1000C000090411241FBECFEFD8E0DEBFCDBF11E081
:1000D000A0E0B1E0ECE5F6E002C005900D92AA3F89
:1000E000B107D9F722E0AAEFB1E001C01D92A93211
:1000F000B207E1F70E9411030C942C030C9400004A
:10010000CF93DF9380910F02835087FD8AC0909137
:100110000B029D3209F083C0883009F080C08091C5
:100120000C02CCE0D0E0C81BD109CD5EDD4F83ECE2
:100130008093FF018AE5809301011092FA01888182
:10014000807621F0CE010E94BA0260C08A811092AE
:1001500008029981911106C01092090228E032E04C
:1001600082E050C0953019F4809310023DC0963063
:10017000A9F59B81913019F48AE790E004C0923090
:1001800041F488E690E090930E0280930D0282E1A4
:1001900021C09330F1F4811108C08EEB90E0909370
:1001A0000E0280930D0284E015C0813041F48CE989
:1001B00090E090930E0280930D0282E20BC0823099
:1001C00041F48CE890E090930E0280930D0280E160
:1001D00001C080E090E49093FA0118C0983079F063
:1001E000993031F48093120228E032E080E00AC0B6
:1001F00081E09A3009F080E028E032E003C022E19B
:1002000032E081E030930E0220930D029F81911124
:1002100004C09E81981708F4892F809300011092E2
:100220000F028091010184FF47C0809100018F3F40
:1002300009F442C0C82F893008F0C8E08C1B8093B5
:1002400000019091FF0188E889278093FF01CC236A
:1002500031F140910D0250910E028091FA0186FF1A
:100260000AC0A0E0B2E0FA019C2F84918D933196F0
:100270009150D9F708C0DA01E0E0F2E09C2F8D91AF
:1002800081939150E1F72FEF2C0F30E02F5F3F4F1C
:10029000CA01820F931F90930E0280930D026C2F60
:1002A00080E092E00E948901CC5FCC3019F08FEFA2
:1002B00080930001C093010184E196B1967031F4FE
:1002C0008150D9F71092100210920A02DF91CF915B
:1002D0000895ECE6F0E0808184608083E8E6F0E059
:1002E0008081826080830895A82FB92F80E090E0FC
:1002F00041E050EA609530E009C02D918227979542
:10030000879510F084279527305EC8F36F5FA8F3B8
:100310000895EADF8D939D930895CF93CFB7CF9340
:10032000DF93C395319BE9F7319B0BC0319B09C02B
:10033000319B07C0319B05C0319B03C0319B01C07D
:1003400089C06F93C0910C02DD27CD5EDD4F2F93E6
:1003500065E5319B03C02F916F91E6CF0F931F93FB
:100360004F9320E040E15F9306B1067001FB27F94F
:100370003F9350E03BE039C0167040642F77012F67
:100380005F5F1EC0406816B116702F7752501FC0B5
:10039000406406B12F770670D1F15F5F00C023C0C3
:1003A000406216B12F77167091F15F5F00C025C0D3
:1003B00006701027515012F45D5F00001150279510
:1003C0002C3F16B1C8F616700127015027952C3F17
:1003D000C8F64227499306B1067010274F73115093
:1003E00027952C3FA8F64695469516B1167079F0DC
:1003F0000127015027952C3F98F66B5A60F3315036
:1004000006B1B0F600C012E01BBB002717C03B507E
:100410003195C31BD04012E01BBB0881033CF9F0AF
:100420000B34E9F020910A021981110F1213EDCF5C
:10043000093651F10D3211F0013E39F700931102E6
:100440003F915F914F911F910F912F916F91CBB37E
:10045000C1FD67CFDF91CF91CFBFCF91189520918C
:100460001102222369F310910F02112339F5343060
:100470003AF130930F0220930B0210910C023BE0F3
:10048000311B30930C021CC000910F020130B4F4F8
:100490000AE53091010134FD14C000930101CFEF52
:1004A000D1E013C0052710E000C0000008B91AC051
:1004B000052710E0221F1DC010E021C04AE502C040
:1004C00032ED432FC4E1D0E032E017B11660419A1B
:1004D00008B117B956E020E865E320FF052708B901
:1004E000279517951C3FF0F66695B8F7B1F720FFF2
:1004F000052708B9279517951C3FD0F6279517951E
:1005000017FF052700001C3F08B9B0F629913A955E
:1005100019F7097F10911002110FC651D04008B988
:1005200011F010930A0212E01BBB026017B1197F91
:10053000402F497F54E05A95F1F708B917B948B9E7
:100540007FCF8091FB019091FC01A2E0B1E09C0182
:1005500022503140F901EA0FFB1FE491ED9341E095
:10056000AA3FB407B9F788509F4F9093FC0180933E
:10057000FB010895FC018181823091F040F48823D1
:1005800059F0813079F58BB18C7F8BB92BC08330DA
:1005900089F08430E1F026C09BB193609BB9089547
:1005A0000E94A10282E091E090930E0280930D02DE
:1005B00088EF0895828180930901838180930A01E5
:1005C000848180930B01858180930C010BC086810F
:1005D0008093FD011092FE01893F30F088EF8093F7
:1005E000FD0102C080E008958FEF08953091FD0174
:1005F0002091FE01620F231738F02093FE0181E065
:10060000231771F080E008952617B9F3FC0141919A
:10061000CF01E22FF0E0EE5FFE4F40832F5FEBCF84
:10062000089583E08AB90E946901399A8AEFA895F2
:10063000EFE3FFE13197F1F700C000008150B9F717
:1006400039987894C2E0D99B03C00E948D01CBBB3E
:0C065000A8950E948000F7CFF894FFCF1F
:10065C00FF5A48656C6C6F2C2055534221000000EA
:10066C00000000000000000000000000000000007E
:10067C00000000000000000000000000000000006E
:10068C00000000000000000000000000000000005E
:10069C00000000000000000000000000000000004E
:1006AC00000000000000000000000000000000003E
:1006BC00000000000000000000000000000000002E
:1006CC00000000000000000000000000000000001E
:1006DC00000000000000000000000000000000000E
:1006EC0000000000000000000000000000000000FE
:1006FC0000000000000000000000000000000000EE
:10070C0000000000000000000000000000000000DD
:10071C0000000000000000000000000000000000CD
:10072C0000000000000000000000000000000000BD
:10073C0000000000000000000000000000000000AD
:0A074C0000000000000000000000A3
:00000001FF
